S00F00005A65676172656B2E737265634C
S11300000C9484040C94A1040C94A1040C94A104F5
S11300100C94A1040C94A1040C94A1040C94A104C8
S11300200C94A1040C94A1040C94A1040C94DA097A
S11300300C94A1040C94A1040C945E080C94A104E7
S11300400C94A1040C94A1040C94A1040C94A10498
S11300500C94A1040C94A1040C94A1040C94A10488
S11300600C94A1040C94A104407924301912027850
S113007000100846060E70FF000101010204060884
S11300800B0E12161B20262D343D454F5964707CEF
S11300908A98A7B7C7D9ECFF1F0000000000000032
S11300A0000000001F00000000000000000000002D
S11300B01F00000000000000000000001F000000FE
S11300C000000000000000001F000000000000000D
S11300D0000000001F1F00000000000000000000DE
S11300E01F1F000000000000000000001F1F000090
S11300F000000000000000001F1F000000000000BE
S1130100000000001F1F00000000000000000000AD
S11301101F1F1F0000000000000000001F1F1F0021
S113012000000000000000001F1F1F00000000006E
S1130130000000001F1F1F0000000000000000005E
S11301401F1F1F0000000000000000001F1F1F1FD2
S113015000000000000000001F1F1F1F000000001F
S1130160000000001F1F1F1F00000000000000000F
S11301701F1F1F1F00000000000000001F1F1F1F83
S113018000000000000000001F1F1F1F1F000000D0
S1130190000000001F1F1F1F1F00000000000000C0
S11301A01F1F1F1F1F000000000000001F1F1F1F34
S11301B01F000000000000001F1F1F1F1F00000081
S11301C0000000001F1F1F1F1F1F00000000000071
S11301D01F1F1F1F1F1F0000000000001F1F1F1FE5
S11301E01F1F0000000000001F1F1F1F1F1F000013
S11301F0000000001F1F1F1F1F1F00000000000041
S11302001F1F1F1F1F1F1F00000000001F1F1F1F95
S11302101F1F1F00000000001F1F1F1F1F1F1F00A4
S1130220000000001F1F1F1F1F1F1F0000000000F1
S11302301F1F1F1F1F1F1F00000000001F1F1F1F65
S11302401F1F1F1F000000001F1F1F1F1F1F1F1F36
S1130250000000001F1F1F1F1F1F1F1F00000000A2
S11302601F1F1F1F1F1F1F1F000000001F1F1F1F16
S11302701F1F1F1F000000001F1F1F1F1F1F1F1F06
S11302801F0000001F1F1F1F1F1F1F1F1F00000034
S11302901F1F1F1F1F1F1F1F1F0000001F1F1F1FC7
S11302A01F1F1F1F1F0000001F1F1F1F1F1F1F1FB7
S11302B01F0000001F1F1F1F1F1F1F1F1F1F0000E5
S11302C01F1F1F1F1F1F1F1F1F1F00001F1F1F1F78
S11302D01F1F1F1F1F1F00001F1F1F1F1F1F1F1F68
S11302E01F1F00001F1F1F1F1F1F1F1F1F1F000096
S11302F01F1F1F1F1F1F1F1F1F1F1F001F1F1F1F29
S11303001F1F1F1F1F1F1F001F1F1F1F1F1F1F1F18
S11303101F1F1F001F1F1F1F1F1F1F1F1F1F1F0027
S11303201F1F1F1F1F1F1F1F1F1F1F001F1F1F1FF8
S11303301F1F1F1F1F1F1F1F191F1F191F1F191FDB
S11303401F191F1F0F191F0F191F0F191F0F191F17
S1130350010F19010F19010F19010F1900010F00E5
S1130360010F00010F00010F1F000000000000003A
S1130370030D171F1F00000000000000010B151FD4
S11303801F000000000000000009131D1F000000F2
S1130390000000000007111B1F0000000000000007
S11303A000050F191F1F00000000000000030D17B7
S11303B01F1F00000000000000010B151D1F00009E
S11303C000000000000009131B1F000000000000D3
S11303D000000711191F0000000000000000050FB5
S11303E0171F1F00000000000000030D151F1F0051
S11303F0000000000000010B131D1F00000000009E
S113040000000009111B1F0000000000000000078D
S11304100F191F0000000000000000050D131F1F2E
S113042000000000000000030B111F1F000000006B
S113043000000001090F1D1F000000000000000063
S1130440070D1B1F0000000000000000050B191F12
S113045000000000000000000309171F1F00000037
S1130460000000000107151F1F000000000000002D
S11304700005131D1F000000000000000003111BF5
S11304801F0000000000000000010F191F00000001
S11304900000000000000D171F1F000000000000F6
S11304A000000B151F1F00000000000000000913CE
S11304B01D1F000000000000000007111B1F0000AA
S11304C0000000000000050F191F000000000000DC
S11304D00000030D171F1F00000000000000010BA7
S11304E0151F1F000000000000000009131D1F005D
S11304F00000000000000007111B1F0000000000A6
S1130500000000050F191F00000000000000000398
S11305100D171F1F00000000000000010B151F1F16
S1130520000000000000000009131D1F000000006F
S11305300000000007111B1F000000000000000065
S1130540050F191F0000000000000000030D171F15
S11305501F00000000000000010B151F1F00000019
S1130560000000000009131D1F000000000000002F
S11305700007111B1F0000000000000000050F19F8
S11305801F0000000000000000030D171F1F0000E3
S11305900000000000010B151F1F000000000000F8
S11305A0000009131D1F00000000000000000711D7
S11305B01B1F0000000000000000050F191F0000B1
S11305C0000000000000030D171F1F0000000000C2
S11305D00000010B151F1F000000000000000009AF
S11305E0131D1F000000000000000007111B1F0066
S11305F000000000000000050F191F0000000000AB
S1130600000000030D171F1F000000000000000180
S11306100B151F1F000000000000000009131D1F20
S1130620000000000000000007111B1F0000000074
S113063000000000050F191F1F0600000000000045
S1130640000000061B0A0000000000000000000477
S11306501610000000000000000000011016010048
S113066000000000000000000A1B0400000000005D
S113067000000000061F060000000000000000004B
S1130680041B0A0000000000000000000116100016
S1130690000000000000000000101601000000002F
S11306A000000000000A1B0400000000000000001D
S11306B000061F06000000000000000000041B0AE2
S11306C000000000000000000001161000000000FF
S11306D000000000000010160100000000000000EF
S11306E000000A1B04000000000000000000061FB8
S11306F006000000000000000000041B0A000000C7
S113070000000000000001161000000000000000BE
S11307100000001016010000000000000000000AA4
S11307201B04000000000000000000061F0600007B
S113073000000000000000041B0A0000000000008C
S1130740000000011610000000000000000000007E
S11307501016010000000000000000000A1B040045
S11307600000000000000000061F0600000000005A
S113077000000000041B0A0000000000000000004C
S11307800116100000000000000000000010160117
S11307900000000000000000000A1B04000000002C
S11307A00000000000061F0600000000000000001A
S11307B000041B0A000000000000000000011610E5
S11307C000000000000000000000101601000000FE
S11307D00000000000000A1B0400000000000000EC
S11307E00000061F06000000000000000000041BBB
S11307F00A000000000000000000011610000000C4
S113080000000000000000101601000000000000BD
S11308100000000A1B0400000000000000000006A5
S11308201F06000000000000000000041B0A000076
S1130830000000000000000116100000000000008D
S1130840000000001016010000000000000000007D
S11308500A1B04000000000000000000061F060040
S11308600000000000000000041B0A00000000005B
S1130870000000000116100000000000000000004D
S1130880001016010000000000000000000A1B0414
S1130890000000000000000000061F060000000029
S11308A00000000000041B0A00000000000000001B
S11308B000011610010000000000000000001016E6
S11308C0040000000000000000000A1B06000000F5
S11308D0000000000000061F0A00000000000000E5
S11308E00000041B100000000000000000000116BE
S11308F01601000000000000000000101B040000AE
S1130900000000000000000A11241FBECFEFD4E055
S1130910DEBFCDBF11E0A0E0B1E0EEE9FCE102C032
S113092005900D92AE31B107D9F721E0AEE1B1E007
S113093001C01D92A235B207E1F70E94200C0C946D
S11309404D0E0C940000ECE7F0E08081806C808315
S1130950808180628083808186608083EAE7F0E022
S113096080818760808380818068808380818061CA
S1130970808380818064808308956623D1F0782FFA
S1130980E82FF92F80E058E048E12191952F322F8C
S1130990382730FF05C0842786958068269502C0D5
S11309A086952695915099F79E2F971B961768F375
S11309B0089580E008950F931F93CF93DF93082F3A
S11309C0EB010E946007182F0E946007181729F096
S11309D0812F0E944D07812F11C098819F5F9883BA
S11309E0901308C081E00E944D078881815088835C
S11309F081E004C080E00E944D0780E0DF91CF9148
S1130A001F910F9108955F926F927F928F929F92A0
S1130A10AF92BF92CF92DF92EF92FF920F931F9308
S1130A20CF93DF931F92CDB7DEB7C12C712C512C1D
S1130A30612C0F2EFDE0BF2EF02D852C962CA72CBB
S1130A400E94080780EF0E9420077982E52CF62C8B
S1130A5025C0BE016F5F7F4F8C2D0E94DB04282FC1
S1130A6030E0002E02C0220F331F0A94E2F7D22A8C
S1130A700F5F1F4F0830110561F780912701F701BF
S1130A80B89EE00DF11D1124E85DFE4FD0828FEF7A
S1130A90E81AF80A88E0E816F10421F0082D192D67
S1130AA0DA2CD7CF10912701B19EC001112468E040
S1130AB0885D9E4F0E94BD04811104C0C9801F5FE0
S1130AC0109327018981882329F0809127018823A5
S1130AD009F4B6CF0F90DF91CF911F910F91FF9042
S1130AE0EF90DF90CF90BF90AF909F908F907F90CA
S1130AF06F905F9008951F93CF93DF93C82F0E9448
S1130B00080785E50E9420078DE0C89FE0011124B5
S1130B10C85DDE4F10E089910E9420071F5F1830E6
S1130B20D1F7DF91CF911F9108950E9408078CECB3
S1130B300E94200784EB0E9420070E94600708950A
S1130B401F93CF93DF93182F0E947B058EE40E949E
S1130B5020078DE0189FE0011124C85DDE4F8B85CE
S1130B600E9420078C850E9420078FE70E9420079F
S1130B70812F0E947B0588E40E942007DF91CF919A
S1130B801F910895CF930E9403050E9495058093B9
S1130B901E0180912701882349F0C0E08C2F0E9418
S1130BA0A005CF5F80912701C817C0F385E5809326
S1130BB03101CF9108950E9408078CEC0E94200710
S1130BC084E40E9420070895DF92EF92FF920F932E
S1130BD01F93CF93DF93CDB7DEB729970FB6F89461
S1130BE0DEBF0FBECDBFD82E0E947B058EEB0E94C8
S1130BF020078E010F5F1F4F7E014AE0E40EF11CB7
S1130C000E943707F80181938F01EE15FF05C1F7A4
S1130C1069E0CE0101960E94BD04811149C08A8118
S1130C202D2D30E04DE0D49EF0011124E85DFE4FFF
S1130C30982F990F990B90876981877040E1849F61
S1130C40C0011124962F92959F70892B818763FF91
S1130C5003C042E350E002C040E050E062FF03C042
S1130C6089E190E002C080E090E0840F951F61FF6D
S1130C7003C04DE050E002C040E050E0840F951FF7
S1130C8060FF03C046E050E002C040E050E06DE089
S1130C90629FF001639FF00D1124E85DFE4F840F05
S1130CA0951F6AE070E00E94E40D628781E001C054
S1130CB080E029960FB6F894DEBF0FBECDBFDF915A
S1130CC0CF911F910F91FF90EF90DF900895CF93F4
S1130CD0DF931F92CDB7DEB7198284E690E00E94BD
S1130CE087079E012F5F3F4F41E06EE080ED0E9439
S1130CF09F0752985A9AE9E6F0E0808183608083E6
S1130D00E09A0F90DF91CF9108950F931F93CF93A3
S1130D10DF93CDB7DEB727970FB6F894DEBF0FBECB
S1130D20CDBF082F192F9E012F5F3F4F47E060E092
S1130D3080ED0E94C807FE013196A02FB12FCE018D
S1130D4008962191322F32953F70330F432F440F71
S1130D50440F340F2F70320F3D93E817F90789F7CA
S1130D6027960FB6F894DEBF0FBECDBFDF91CF91AB
S1130D701F910F9108959DEC899F912D11249695B3
S1130D809695969540E1949F90011124990F392FDF
S1130D90330F330F930F891B822B0895CF92DF9269
S1130DA0EF92FF920F931F93CF93DF93CDB7DEB7EC
S1130DB027970FB6F894DEBF0FBECDBF7C018E011E
S1130DC00F5F1F4F6E0188E0C80ED11CF70181919F
S1130DD07F010E94BB06F80181938F01EC15FD058C
S1130DE0A9F79E012F5F3F4F47E060E080ED0E942E
S1130DF09F0727960FB6F894DEBF0FBECDBFDF91D5
S1130E00CF911F910F91FF90EF90DF90CF900895B5
S1130E1043983B9A81E999E00197F1F700C00000FB
S1130E203B988DE591E00197F1F700C000003399FC
S1130E30F0CF81E999E00197F1F700C0000008952F
S1130E4098E03B9A21E22A95F1F7000080FD3B9857
S1130E50EBE2F1E03197F1F700C000003B98F1E2DA
S1130E60FA95F1F700008695915059F7089598E0A6
S1130E7080E086953B9A24E12A95F1F73B98E4E1DA
S1130E80EA95F1F733998068EBE2F1E03197F1F7F5
S1130E9000C00000915069F708953B9A9DE09A952F
S1130EA0F1F7000081113B988BE291E00197F1F793
S1130EB000C000003B9896E09A95F1F700C00895B1
S1130EC03B9A84E18A95F1F73B98E4E1EA95F1F7DE
S1130ED086B1EBE2F1E03197F1F700C0000083FB4B
S1130EE0882780F9089584EA8093BC00ECEBF0E055
S1130EF080818823ECF708958093BB0084E8809375
S1130F00BC00ECEBF0E080818823ECF708959C01B1
S1130F1040E050E060E27EE480E090E00E94F80D62
S1130F20822F203148F030E020513109C901992342
S1130F300CF40196959587958093B8000895FF92D7
S1130F400F931F93CF93DF93D82FC62F142FF22E16
S1130F50032F0E9473078D2F0E947C078C2F0E9401
S1130F607C07112339F0CF2DD02F89910E947C0763
S1130F701150D9F784E98093BC00ECEBF0E0808158
S1130F8084FDFDCFDF91CF911F910F91FF900895C4
S1130F90FF920F931F93CF93DF93D82FF62EC42F76
S1130FA0022F132F0E9473078D2F0E947C078F2D11
S1130FB00E947C070E94730781E08D0F0E947C07CA
S1130FC05FEF5C0FCC2309F1A02FB12F31E040E09B
S1130FD0ECEBF0E0CBEBD0E0232F511101C0242F38
S1130FE0822F90E00024969587950794969587958F
S1130FF00794982F802D8468808380818823ECF760
S113100088818D9351502111E7CF84E98093BC00EE
S1131010ECEBF0E0808184FDFDCFDF91CF911F9157
S11310200F91FF90089584B1886284B908952B9834
S113103048E050E020E830E090E0B90168237923EB
S1131040672B11F02D9A01C02D98000000000000BC
S113105000002B9A00000000000000002B98369539
S11310602795415051094115510539F7089570E00C
S1131070782B2A9820E130E080E090E8AC01462308
S11310805723452B11F0289A01C028982A9A2A98A8
S113109096958795215031092115310579F7299ABB
S11310A02998089584B1876084B98BE487BD82E070
S11310B084BD93E095BD80936E0008951F920F92B6
S11310C00FB60F9211242F933F934F935F936F9317
S11310D07F938F939F93AF93BF93EF93FF9320914D
S11310E000018091200190E0821B910918161906D5
S11310F00CF160911F01E62FF0E0EF5FFE4FE081FD
S1131100F0E0E859FF4F849121E030E0A90102C0EA
S1131110440F551F6A95E2F7BA010E94370880917F
S11311201F018F5F883019F080931F0111C0109246
S11311301F010EC0E7E7F0E0849161E070E00090E9
S11311401F0102C0660F771F0A94E2F70E94370856
S1131150809120018F5F8B3019F08093200102C0B1
S113116010922001FF91EF91BF91AF919F918F91C8
S11311707F916F915F914F913F912F910F900FBE8F
S11311800F901F90189580914C01826080934C01C0
S113119084EF91E0909349018093480108958091F0
S11311A04F018F5F80934F01843018F010924F01EC
S11311B008C0823030F080914C01826080934C01F1
S11311C005C080914C018D7F80934C0180914C012E
S11311D0846080934C018CED95E090934901809359
S11311E04801089580911C0181112BC080914C010C
S11311F084FD27C080911B018F5F8330D9F4109246
S11312001B011AC01192E817F907E1F78FEF8093D9
S1131210190180931A0181E080931C0180914C0193
S1131220806180934C0184E690E09093490180931F
S11312304801089580931B01E9E0F1E085E191E024
S1131240E1CF089580914F01813041F1E0F0823087
S113125071F0833079F580913A018F5F8D3018F405
S113126080933A0127C081E080933A0123C08091A2
S113127039018F5F803218F4809339011BC081E0FB
S11312808093390117C0809137018F5F883118F43A
S1131290809337010FC0109237010CC08091360142
S11312A08F5F8C3318F48093360102C0109236019C
S11312B01092350185E391E00E94CE0680914C01A5
S11312C0846080934C018CED95E090934901809368
S11312D04801089580914F01813039F1D0F0823076
S11312E069F0833069F580913A01815019F0809357
S11312F03A0126C08CE080933A0122C080913901E2
S1131300815019F0809339011BC08FE1809339011A
S113131017C0809137018150883118F480933701C8
S11313200FC087E1809337010BC080913601815053
S11313308C3318F48093360103C08BE38093360119
S113134085E391E00E94CE0680914C0184608093F5
S11313504C018CED95E090934901809348010895E8
S113136080914C01816080934C018FEC98E09093C4
S1131370470180934601109244011092430182E296
S113138099E090934B0180934A0190933F0180939D
S11313903E018AE699E09093510180935001909325
S11313A04101809340018CED95E090934901809335
S11313B0480108951F920F920FB60F9211248F9334
S11313C09F9380914E01882329F080914E01815092
S11313D080934E018091480190914901892B49F0F5
S11313E0809148019091490101979093490180931C
S11313F0480180914201882329F080914201815063
S11314008093420180914501882329F08091450110
S113141081508093450180914D01882329F080916A
S11314204D01815080934D019F918F910F900FBE7C
S11314300F901F901895E09B0AC085E391E00E94ED
S1131440850680914C01846080934C01E09A089554
S113145080914201811112C00E94E405813059F447
S11314600E94DB0580913101853529F080914C0182
S1131470886080934C0188EC809342010895EF9238
S1131480FF920F931F93CF93DF9380911C018823C6
S113149009F43FC0813061F42B9A00000000000081
S11314A000002B9882E080931C0181E08093450129
S11314B080911C01823069F580914501811129C018
S11314C0C9E0D1E00BE111E00F2EFBE0EF2EF12C8F
S11314D0F02D809100018B3098F48881882369F085
S11314E02091000190E0B701621B7109660F771F1C
S11314F0660F771F0E94E40D862F0E94170803C011
S113150088810E9417082196C017D10711F71092FD
S11315101C01DF91CF911F910F91FF90EF900895DF
S113152080917A0084FF79C080912601811175C071
S11315308091780020917900809124019091250177
S1131540820F911D96958795909325018093240190
S113155020913101253509F454C020914C012370A8
S113156009F04FC08031910518F41092000149C070
S11315708F31910520F481E08093000142C08333D0
S1131580910520F482E0809300013BC08C349105E6
S113159020F483E08093000134C08536910520F463
S11315A084E0809300012DC08E37910520F485E0FE
S11315B08093000126C08739910520F486E080934A
S11315C000011FC0803B910520F487E08093000157
S11315D018C0843C910520F488E08093000111C078
S11315E08D3D910520F489E0809300010AC0813F7C
S11315F0910520F48AE08093000103C08BE080937E
S11316000001EAE7F0E0808180618083808180646A
S113161080838AEF8093260108958091260181506A
S1131620809326010895EF92FF920F931F93509198
S11316302301552311F0561365C0FC0180818623D4
S113164009F057C080912201811150C081E080933C
S1131650220185E080934E0155C090914E01911175
S113166032C082E08093220183E080934E01609334
S1131670230148C08250823008F040C00115110592
S113168011F0F8010995109222011092230136C03D
S1131690823079F480914E01811134C021153105D5
S11316A011F426E930E083E08093220120934E0177
S11316B029C0833041F480914E01811123C084E01C
S11316C0809322011FC08430E9F480914E0181117E
S11316D019C040934E01E114F104A1F0F7010995FA
S11316E011C010922201109223010CC0813081F6A6
S11316F0B4CF809122018111BDCF04C08091220119
S1131700833078F71F910F91FF90EF9008958091A7
S11317104D01811128C080913101853521F08091DE
S11317204C01837001F180911C0181111CC08091D6
S113173021018F5F8C3309F06DC0109221016CC0C0
S1131740FC014491E42FF0E0E858FF4FE491ED935D
S11317500196A217B307A1F781E080931C0182E0F0
S113176080934D01089580914C0182FF68C080915F
S11317701B01813031F580911C01811160C0809181
S1131780350190E09C01220F331F820F931F880FB5
S1131790991F880F991F88569F4FA9E0B1E025E152
S11317A031E0FC014491E42FF0E0E858FF4FE4916C
S11317B0ED930196A217B307A1F781E080931C0172
S11317C00895823009F03BC080911C01811137C01B
S11317D08091350190E09C01220F331F820F931FEB
S11317E0880F991F880F991F885C994FA9E0B1E071
S11317F025E131E0FC014491E42FF0E0E858FF4F8B
S1131800E491ED930196A217B307A1F781E08093C9
S11318101C010895809321018091210190E09C0195
S1131820220F331F820F931F880F991F880F991F50
S113183088599C4FA9E0B1E025E131E081CF0895BA
S113184087EA91E690938900809388001092800043
S1131850E1E8F0E080818860808380818260808319
S11318601092820082E080936F0087B1887F87B9ED
S113187088B1876088B90E9413080E9452080E94A8
S113188067060E94C2050E94A30483EC98E090932B
S113189047018093460120EB39E0309344012093C3
S11318A0430190934B0180934A0110923F0110929F
S11318B03E0182EF98E09093510180935001109281
S11318C041011092400128E088E190E00FB6F894BD
S11318D0A895809360000FBE2093600078940F2E2B
S11318E0F9E1CF2EF1E0DF2EF02DCAE1D1E00F2E89
S11318F0FCE1AF2EF1E0BF2EF02D0F2EF5E06F2EA0
S1131900F1E07F2EF02D0F2EF8E04F2EF1E05F2E48
S1131910F02D0F2EF7E02F2EF1E03F2EF02D0F2E9D
S1131920F3EC8F2EF8E09F2EF02D0E94870B809110
S11319304C0184FF0BC08091480190914901892B8F
S113194029F480914C018F7E80934C0180914C014D
S113195082FFAEC0F6019081909590839881909516
S1131960988391E0F501908381FF4FC080FF0FC001
S113197080914F01823059F4E5E3F1E0808180FFEA
S113198006C08FE0F2018083F101808314C0E9E393
S1131990F1E080819DEC899F912D11249695969577
S11319A09695F2019083990F292F220F220F920FFF
S11319B0891BF101808380914C0180FF10C08091CC
S11319C04F01833061F4E5E3F1E0808180FF07C0DB
S11319D08FE0E6E0F1E08083F301808364C0EAE312
S11319E0F1E080819DEC899F912D11249695969527
S11319F09695E6E0F1E09083990F292F220F220FAC
S1131A00920F891BF30180834EC080FF0FC0809129
S1131A104F0181110BC0E5E3F1E0808180FF06C036
S1131A208FE0F2018083F101808314C0E7E3F1E0E9
S1131A3080819DEC899F912D11249695969596957C
S1131A40F2019083990F292F220F220F920F891BE5
S1131A50F101808380914C0180FF10C080914F017F
S1131A60813061F4E5E3F1E0808180FF07C08FE01D
S1131A70E6E0F1E08083F301808315C0E6E3F1E062
S1131A8080819DEC899F912D11249695969596952C
S1131A90E6E0F1E09083990F292F220F220F920F95
S1131AA0891BF301808380914C018B7F80934C01CF
S1131AB08091480190914901892B31F580914C0125
S1131AC0837011F180914C018C7F846080934C0170
S1131AD0909247018092460180EB99E090934401F3
S1131AE08093430190924B0180924A0110923F01EE
S1131AF010923E0182EF98E090935101809350013F
S1131B00109241011092400180914C0183FF1FC04B
S1131B10809131019DEC899F912D11249695969584
S1131B20969590930401990F292F220F220F920F5B
S1131B30891B8093030180913201809302018EE01E
S1131B408093010180914C01877F80934C01E09048
S1131B504301F090440100914601109147012AEF9E
S1131B6030E045E050E064E086E290E00E94130B30
S1131B70E0903E01F0903F0100914A0110914B0129
S1131B802AEF30E045E050E062E086E290E00E9417
S1131B90130BE0904001F09041010091500110912D
S1131BA051012AEF30E045E050E061E086E290E048
S1131BB00E94130B0E94900A0E94280A0E941B0A8A
S1131BC00E943F0AA895B1CE97FB072E16F4009405
S1131BD007D077FD09D00E94170E07FC05D03EF40C
S1131BE0909581959F4F0895709561957F4F0895C5
S1131BF0052E97FB1EF400940E940F0E57FD07D08C
S1131C000E942B0E07FC03D04EF40C940F0E50953B
S1131C104095309521953F4F4F4F5F4F08959095D4
S1131C208095709561957F4F8F4F9F4F0895AA1BA4
S1131C30BB1B51E107C0AA1FBB1FA617B70710F0B3
S1131C40A61BB70B881F991F5A95A9F780959095E5
S1131C50BC01CD010895A1E21A2EAA1BBB1BFD01F4
S1131C600DC0AA1FBB1FEE1FFF1FA217B307E40777
S1131C70F50720F0A21BB30BE40BF50B661F771FCF
S1131C80881F991F1A9469F76095709580959095AF
S1111C909B01AC01BD01CF010895F894FFCF74
S1131C9E0B0F0F0F0F0F0F0F0F00000000000000AF
S1111CAE000000000000000000000001000023
S9030000FC
